:1000000000308A0004280000FF238316900000308F
:100010008A001E2826308400000803191D2801309C
:10002000A100A001A00B1228A10B11284A30A000AA
:10003000A00B18281B28800B0F28080003081F3965
:100040008300A401073099000330831695008113C3
:10005000F330850083120511831685008312851104
:10006000F33083168500831205183B28C830A6009C
:100070000A200130A400A40803195028A401F33079
:1000800083168500831205150C30A500FA30A600F2
:100090000A20A50B4628F33083168500831205112C
:0400A00030286300A1
:02400E00D431AB
:00000001FF
;PIC12F629
;CRC=7F1F  CREATED="28-Aug-22 00:01"
